:020000040800F2
:10000000B0060020D9010008DD010008DF0100086A
:10001000E1010008E3010008E5010008000000001C
:10002000000000000000000000000000E7010008E0
:10003000E901000800000000EB010008ED010008E4
:10004000EF010008EF010008EF010008EF010008D0
:10005000EF010008EF010008EF010008EF010008C0
:10006000EF010008EF010008EF010008EF010008B0
:10007000EF010008EF010008EF010008EF010008A0
:10008000EF010008EF010008EF010008EF01000890
:10009000EF010008EF010008EF010008EF01000880
:1000A000EF010008EF010008EF010008EF01000870
:1000B000EF0100081D4D0008EF010008EF010008E6
:1000C000EF010008EF010008EF010008EF01000850
:1000D000EF010008E30B0008150C0008EF01000811
:1000E000EF010008EF010008EF010008EF01000830
:1000F000F7530008EF0100085D540008EF01000805
:10010000EF010008EF01000803500008EF010008AC
:10011000EF010008EF010008EF010008EF010008FF
:10012000EF010008EF010008EF010008EF010008EF
:1001300000F002F800F03AF80AA090E8000C8244BF
:100140008344AAF10107DA4501D100F02FF8AFF29C
:10015000090EBAE80F0013F0010F18BFFB1A43F0A5
:1001600001031847D0740000F0740000103A24BF57
:1001700078C878C1FAD8520724BF30C830C144BF0C
:1001800004680C607047000000230024002500264E
:10019000103A28BF78C1FBD8520728BF30C148BFEA
:1001A0000B6070471FB51FBD10B510BD05F054FAA8
:1001B0001146FFF7F7FF04F01CFC05F072FA03B4D8
:1001C000FFF7F2FF03BC05F073FA000030BF72B610
:1001D00062B680F30888704708480047FEE7FEE7EC
:1001E000FEE7FEE7FEE7FEE7FEE7FEE7FEE7FEE7E7
:1001F00003480449044A054B7047000031010008D8
:10020000B0000020B0060020B0020020B0020020A4
:10021000C54A0A400243C54B1A607047014607238E
:1002200023EA01021202C14B1B1D18684FF6FF039F
:100230001840BF4B18431043BC4B1B1D1860704740
:100240002DE9F0410746884614461D462846FFF72B
:10025000E5FFC5F1040007FA00F60F20284100EA87
:100260000800064306F00F06E21704EBD2625211B3
:10027000920002F1E022D2F800212146E31704EBBC
:10028000D3635B11A4EB431C012303FA0CF31A4361
:100290002046E31704EBD3635B119B0003F1E023DB
:1002A000C3F80021A348005D40EA0610A1490855A3
:1002B000BDE8F08170B504460B46CE1701EB96768B
:1002C000C6F38700CE1701EB9676B610A1EB860633
:1002D000B606350E984B9B6943F00103964EB36109
:1002E0004FEAB63353F820300F26AE40B343934E57
:1002F00046F82030334653F8203004FA05F61E4302
:100300008E4B43F820608E4B1B6801268E40334392
:100310008B4E336002F0010343B1894B0C331B68F1
:1003200001268E403343864E0C36336002F00203C2
:1003300043B1834B08331E6801238B401E43804B1F
:1003400008331E6070BD00B500207B490861C8609D
:100350001420486100208861C8610846006840F0A8
:1003600001000860084640687649084072494860C4
:1003700008460068744908406F49086008460068EC
:1003800020F4802008600846406820F4FE004860A1
:100390000020886000214FF00060FFF739FF00BDAA
:1003A00010B562480830006840F004005F49083129
:1003B00008606148C06940F080505F49C861634887
:1003C000406840F48070614948600846006840F029
:1003D000040008600846006840F002000860FFF76B
:1003E000F5FE10BD5248001D5049091D08607047B8
:1003F00001464906504A926942F001024E4B9A6109
:100400004E4A083A526822F0E0624C4B083B5A6070
:100410001A4652680A435A60704730B504460025B0
:10042000FFF791FF4448006840F48030424908607B
:1004300000BF41480068400C0028FAD04FF48060AB
:100440003D494860A01EC4B20846406840EA844066
:1004500048600846406840F4803048603C48006886
:1004600040F032003A4908603348006840F080703C
:100470003149086000BF30480068400E0028FAD0BB
:100480002D48406840F002002B49486005E02A48AA
:100490004068C0F3870505F00305022DF7D130BD94
:1004A00030B504460025FFF74EFF2348006840F0B2
:1004B00001002149086000BF1F480068400800286B
:1004C000FAD04FF480601C494860A01EC4B20846B0
:1004D000406840EA844048600846406820F4803024
:1004E00048601B48006840F0320019490860124813
:1004F000006840F080701049086000BF0E48006836
:10050000400E0028FAD00C48406840F002000A492A
:10051000486005E008484068C0F3870505F003051A
:10052000022DF7D130BD000080FFFF1F08ED00E075
:100530000000FA0500E400E000100240080001405D
:10054000000401400000FFF8FFFFF6FE00700040CD
:10055000002002404FF0E021096921F004014FF032
:10056000E0221161C21700EB5272C2F3C702234BA3
:100570001A701946097801EB4102C2EBC1114FF61E
:10058000FF7202EAC1011E4A1180704701461B4AF0
:1005900012784A434FF0E0235A6100229A61012207
:1005A0001A6100BF4FF0E022106900F001021AB199
:1005B00000F48032002AF5D000224FF0E0231A61C7
:1005C0009A61704701460E4A12884A434FF0E02371
:1005D0005A6100229A6101221A6100BF4FF0E022A5
:1005E000106900F001021AB100F48032002AF5D03F
:1005F00000224FF0E0231A619A617047000000204A
:1006000002000020F0B50446059E002514B109B192
:1006100002B10BB90120F0BD601EC4B2481EC1B2C8
:10062000501EC2B2581E83B2FE48806940F00800D6
:10063000FC4FB8613846806940F00100B861FA4863
:10064000406820F40050F84F78603846406840F425
:1006500080407860F548006820F0FF00F34F386074
:100660003846006840F0B8003860F048083000684C
:1006700040F48070ED4F083738603846006840F429
:1006800000703860E748C06940F00070E54FF861DD
:100690000020E74F38603846006840F001003860BD
:1006A00005E0681C85B2642D01DD0220B3E7E04857
:1006B000001D006800F001000028F2D0DC4800684E
:1006C000DB4F38603846006838603846006838606C
:1006D0003846006840F010003860384600683860DE
:1006E0003846006838600020D14F1C3738603846E3
:1006F000006840EA867038603846006840EA046066
:1007000038603846006840EA015038603846006872
:1007100040EA024038603846006818433860C448F0
:10072000006820F00100C24F386007E0681C85B205
:100730004FF6F070854201DD03206CE7BC48001DD8
:10074000006800F001000028F0D1BA48006840F0CD
:100750000100B84F3860B7481C30006820F0010035
:10076000B44F1C373860B3480C30006840F00100CB
:10077000B04F0C373860AF48001D006820F0010012
:10078000AC4F3F1D3860AB481430006820F00100CA
:10079000A84F143738600020A64F40373860002734
:1007A000A44844300760A3481C30006840F00100B2
:1007B000A04F1C3738609F48006800209D4F38606C
:1007C00000BF28E7F0B505460E46059C984808305E
:1007D000006800F0806008B1002111E09448083002
:1007E000006800F0006008B1012109E0904808307D
:1007F000006800F0805008B1022101E0FF20F0BD48
:1008000000278C48803800EB011007601EB9C5F343
:100810000A056D0502E025F06045ED008548803849
:1008200000EB011000682843824F803F07EB01175F
:1008300038608048803800EB0110006840EA860785
:100840007C48803800EB011007607A48803800EB64
:100850000110006840EA42077648803800EB01103A
:10086000076003F00F037348803800EB0110406805
:1008700020F00F076F48803800EB011047606D488B
:10088000803800EB0110406818436A4F803F07EB47
:1008900001177860E0790006A77940EA0740677998
:1008A00040EA0727207907436248803800EB0110AF
:1008B000C760E0780006A77840EA0740677840EA1A
:1008C0000720277838435B4F803F07EB0117B8605C
:1008D0005848803800EB0110006840F00107554887
:1008E000803800EB01100760084688E701460020C9
:1008F00021B1012916D002293CD127E04C4A083207
:10090000126802F001021043494A0832126802F0EC
:1009100002021043464A0832126802F0806240EA3E
:10092000126029E0424A0832126802F001021043C4
:100930003F4A0832126802F0020210433C4A083271
:10094000126802F0006240EA526015E0384A08324C
:10095000126802F001021043354A0832126802F0B0
:1009600002021043324A0832126802F0805240EA12
:10097000926001E0052000BF00BF7047014629B921
:100980002B480C30006800F003007047012905D1A6
:1009900027481030006800F00300F6E70020F4E775
:1009A000F0B5DDE90554234E503E06EB00163668DF
:1009B00006F00406167016783EB91E4E503E06EB41
:1009C00000163668760D0E6006E01A4E503E06EBB5
:1009D00000163668F6080E60164E503E06EB0016FE
:1009E000366806F002061E70124E503E06EB0016E8
:1009F000766806F00F062E700E4E503E06EB00167F
:100A0000B66826700B4E503E06EB0016B668360AE6
:100A10006670084E503E06EB0016B668360CA6709F
:100A2000044E09E00010024000000140040C0140A7
:100A30000064004000660040503E06EB0016B668B9
:100A4000360EE670544E06EB0016F6682671524ECE
:100A500006EB0016F668360A66714F4E06EB001676
:100A6000F668360CA6714C4E06EB0016F668360E8C
:100A7000E67130B9494E366846F02006474F3E6071
:100A800009E0012807D1454E361D366846F020069C
:100A9000424F3F1D3E60F0BDF8B505460E460024AE
:100AA00033460022114612200095FFF78BFE0746C1
:100AB00001E0601C84B23846FFF718FF072803D016
:100AC00040F6FF708442F4DB40F6FF70844201DBA5
:100AD0000120F8BD0020FCE710B586B004460020D8
:100AE000FFF74CFF10B9002006B010BD02A803AB01
:100AF00004AA05A9CDE900040020FFF751FF0598DD
:100B0000122805D19DF8100010B99DF80C0008B10D
:100B1000002002909DF80800E6E7F8B506460D466D
:100B2000002408230022114630460095FFF74AFEB4
:100B3000074601E0601C84B23846FFF7D7FE07285D
:100B400003D040F6FF708442F4DB40F6FF7084422D
:100B500001DB0120F8BD0020FCE730B585B004467C
:100B60000D460020FFF70AFF10B9002005B030BD88
:100B700002A803AB04AA2946CDE900040020FFF730
:100B80000FFF9DF8100010B99DF80C0008B100206F
:100B900002909DF80800E9E7B06500400C64004051
:100BA00000BF9749098801F040010029F9D0944914
:100BB000091D0880704700BF9249098801F0400173
:100BC0000029F9D08F49091D0880704700BF8E4861
:100BD00000780028FBD000208B4908708B480078F3
:100BE00070478748008800F0200038B18448001D15
:100BF000008886490870012083490870704700BF4B
:100C0000834800780028FBD0002081490870814883
:100C1000007870477B48008800F0200038B17948A0
:100C2000001D00887B4908700120794908707047D1
:100C30002DE9F05F05460E46300105F00BFE8146BA
:100C4000754905FB01F005F005FE8246494605F0B1
:100C5000C1FC0746384605F0C5FD84B2204605F0C4
:100C6000F9FD8346394605F005FF82464FF0834182
:100C700005F004FE814605F0B5FD80464FF6FF7095
:100C800000EA041404EB080084B26448806940F070
:100C90000400624988610846806940F480408861A8
:100CA0005F48006820F47F605D490860084600687E
:100CB00040F40B6008605948C06840F480405749D0
:100CC000C8600846C06820F48040C8604C480830BE
:100CD0000480001D008842F20C01084348490C3191
:100CE00008800846008840F4807008800846008824
:100CF00040F0200008800223252203210846FFF748
:100D00009FFAAFF2371047490860AFF26B104649BF
:100D10000860BDE8F09F2DE9F05F05460E46300102
:100D200005F098FD81463C4905FB01F005F092FD78
:100D30008246494605F04EFC0746384605F052FD0E
:100D400084B2204605F086FD8346394605F092FEC2
:100D500082464FF0834105F091FD814605F042FD4A
:100D600080464FF6FF7000EA041404EB080084B2DA
:100D70002A48806940F00400284988610846C06913
:100D800040F40030C8612648001F006820F47F400E
:100D90002349091F08600846006840F40B400860BA
:100DA0001E48006940F400301C490861084600698B
:100DB00020F400300861134808300480001D0088CA
:100DC00042F20C0108430F490C31088008460088A4
:100DD00040F4807008800846008840F020000880B9
:100DE0000223262203210846FFF72AFAAFF2F11068
:100DF0000C490860AFF241200B490860BDE8F09F44
:100E0000003801400044004005000020040000209C
:100E1000070000200600002040420F0000100240A2
:100E200004080140100000200800002010B504460E
:100E30000A2C02D10D20FFF7F9FFF848006840B1F5
:100E4000F64800680470F5480068401CF3490860E3
:100E500010BDF348006818B12046F1490968884779
:100E600000BFF5E710B5044603E014F8010BFFF7E7
:100E7000DDFF20780028F8D110BD70B505460C467E
:100E8000E7480668056003E014F8010BFFF7CEFFA2
:100E900020780028F8D1E248066070BD2DE9F34FB4
:100EA00087B0054600BF15F8014B04B9FBE0252CBF
:100EB00003D02046FFF7BAFFF5E7002715F8014BEE
:100EC000302C03D1012715F8014B04E02D2C02D161
:100ED000022715F8014B4FF0000A07E00AEB8A00E1
:100EE00004EB4000A0F1300A15F8014B302C01DB77
:100EF000392CF3DD6C2C01D04C2C03D147F00407C6
:100F000015F8014B04B9CEE02646612E02DBA6F1AE
:100F10002000C6B24F2E42D006DC422E3CD0432EDB
:100F200032D0442E45D13DE0532E04D0552E3AD038
:100F3000582E3ED13AE00898006801900898001DAC
:100F400008904FF0000901E009F10109019810F83B
:100F500009000028F8D102E02020FFF767FF07F022
:100F6000020020B9484609F101095045F4D301981F
:100F7000FFF778FF02E02020FFF758FF484609F10D
:100F800001095045F7D38EE7089911F8042BD0B228
:100F90000891FFF74BFF86E7022006900DE008203E
:100FA00006900AE000BF0A20069006E01020069096
:100FB00003E02046FFF73AFF75E700BF07F00400A3
:100FC00028B1089800680899091D08910CE0442E82
:100FD00005D1089800680899091D089104E008984F
:100FE00000680899091D08918346442E06D10BF02C
:100FF000004018B1CBF1000B47F008074FF0000894
:1010000000BF0698BBFBF0F100FB11B0C6B206981A
:10101000BBFBF0FB092E06DD782C01D1272000E078
:1010200007203044C6B206F13000C2B2404608F193
:10103000010802A90A54BBF1000F02D0B8F1100F49
:10104000DFD307F0080028B12D22404608F101083F
:1010500002A90A54C14607F0010008B1302000E09F
:101060002020064602E03046FFF7E0FE07F00200CF
:1010700020B9484609F101095045F4D300BFA8F151
:101080000101884602AA505CFFF7D0FEB8F1000FBC
:10109000F5D102E02020FFF7C9FE484609F1010919
:1010A0005045F7D3FFE600BF09B0BDE8F08F0FB49D
:1010B00008B503A8009000990298FFF7EFFE002002
:1010C000009001B05DF814FB0FB438B504465348E6
:1010D000046006A8009000990598FFF7DFFE002045
:1010E00000904E49096808704C49086038BC5DF8AA
:1010F00014FB0FB438B5044649480568046006A8D7
:10110000009000990598FFF7C9FE00200090444820
:10111000056038BC5DF814FB2DE9F05F07468B468F
:1011200015469A4659463FA0FFF7C1FFBAF1010F95
:1011300006D0BAF1020F22D0BAF1040F35D129E05E
:101140003E46002404E0315D38A0FFF7B0FF641C88
:10115000AC42F8DB2020FFF769FE00240CE0315D93
:10116000202904DB315D7E2901DC315D00E02E2188
:101170000846FFF75BFE641CAC42F0DB15E0B846A6
:1011800000BF38F8021B2BA0FFF791FF681E050077
:10119000F7D10AE0B94600BF59F8041B27A0FFF7B2
:1011A00086FF681E0500F7D100BF00BF0A20FFF7C9
:1011B0003DFEBDE8F09F2DE9F04106460F4621486F
:1011C000006810B90020BDE8F081002500BF1D486F
:1011D0000068804704460CB90020F4E70D2C00D1CC
:1011E00013E0082C05D125B16D1EE0B2FFF71EFEFD
:1011F000EDE7202C08DB781EA84205DD28466D1C93
:101200003454E0B2FFF712FEE1E700BF0020705552
:101210000A20FFF70BFE0120D5E700000C0000209C
:10122000080000202530386C58200000202530327E
:1012300058000000202530345800000020253038A8
:101240004C580000100000202DE9F04104460D46E6
:10125000164637480768046031462846FFF7ABFF5B
:101260008046334807604046BDE8F08170B50246CD
:101270000D4600260020286002E01068401C106027
:10128000106801782029F8D02D2904D10126106892
:10129000401C10600178302920D11068401C10607B
:1012A0000178622907D078290BD110231068401CDF
:1012B0001060017811E002231068401C1060017872
:1012C0000BE0202901DC012070BD302901DB392928
:1012D00001DD0020F8E7082300BF06E0302901DB2C
:1012E000392901DD0020EFE70A23002419E06129F4
:1012F00002DBA1F12000C1B2A1F13000C1B211297D
:1013000005DBC81FC1B2092901DC0020DCE79942D6
:1013100001DB0020D8E704FB03141068401C1060B8
:1013200001782029E3DC06B164422C600120CBE780
:10133000100000200F48806940F080000D4988614E
:101340000D48006820F07F400B490860084600689F
:1013500040F04C50086008480C30006820F0400015
:1013600005490C3108600846006820F080000860DC
:101370007047000000100240001C014001460A4670
:10138000002001E0401C521C1378002BFAD170475A
:1013900010B50B4601461A4603E014780C70491C40
:1013A000521C1478002CF8D10C7010BD10B50B46EF
:1013B00001461A4600E0491C0C78002CFBD103E0E2
:1013C00014780C70491C521C1478002CF8D10C7045
:1013D00010BD30B503460C46194622460EE008788B
:1013E0001578A84208D008781578A84202DA4FF09C
:1013F000FF3030BD0120FCE7491C521C0878002852
:10140000EDD110780028EAD108781578A84201D1EA
:101410000020EEE708781578A84202DA4FF0FF3096
:10142000E7E70120E5E7F0B503460C461546194607
:101430002246002612E0B54200DC15E00878177855
:10144000B84208D008781778B84202DA4FF0FF3077
:10145000F0BD0120FCE7491C521C761C08780028CE
:10146000E9D110780028E6D100BF0020F0E701465E
:10147000302903DB392901DC012070470020FCE71B
:101480000146412903DB5A2901DC0120704761290B
:1014900003DB7A2901DC0120F8E70020F6E70146AA
:1014A000072901D100207047082901D10020FAE75F
:1014B000092901D10020F6E70A2901D10020F2E72D
:1014C0000B2901D10020EEE70C2901D10020EAE729
:1014D0000D2901D10020E6E7002903DB1F2901DCEB
:1014E0000120E0E70020DEE70146612904DB7A29DC
:1014F00002DC2022881A70470846FCE70146412991
:1015000004DB5A2902DC2022881870470846FCE7D1
:101510002DE9F041034600260025A84600271A467B
:1015200021E01078FFF7A3FFE0B91078202800D160
:101530006D1C10782B2809D14FF000086D1C381E47
:1015400007F1010702DD0020BDE8F08110782D28A9
:1015500008D14FF001086D1C381E07F1010701DDAD
:101560000020F1E7521C10780028DAD12C4605E063
:10157000185D30380A2106FB0106641C185D30280E
:1015800002DB185D3928F3DDB8F1000F01D070429D
:10159000DAE73046D8E702460B46114605E0087800
:1015A000984201D108467047491C08780028F6D1B6
:1015B00000BFF8E770B503460C46154622462146A3
:1015C00000BFB3FBF5F005FB10300BA6305C01F853
:1015D000010BB3FBF5F3002BF3D1002001F8010957
:1015E00006E010780E7802F8016B01F8010900BFDF
:1015F0008A42F6D3204670BD303132333435363727
:1016000038396162636465666768696A6B6C6D6EC0
:101610006F707172737475767778797A0000000054
:1016200010B5024600200023114614E00C780D2C62
:101630000FD00C780A2C0CD00C78092C09D00C781F
:101640003CB10C78202C04D05B1C012B02D1401C37
:1016500000E00023491C0C78002CE7D110BD2DE9D7
:10166000F04305460F469C46079E4FF00008C146D2
:101670002946002030603AE008780D2834D00878F8
:101680000A2831D0087809282ED0087860B3087865
:10169000202829D009F10109B9F1010F26D1B84557
:1016A0001FD11346002407E0641CA44500DC11E0B0
:1016B000087818705B1C491C08780D280AD0087837
:1016C0000A2807D00878092804D0087810B10878CB
:1016D0002028E9D100BF0020187034601046BDE812
:1016E000F08308F1010801E04FF00009491C087877
:1016F0000028C1D100BFF2E72DE9F047B2B0814622
:10170000884692464846FFF78BFF0646202E00DBB0
:101710002026002522AF002419E001A8C5F14003CE
:101720003A46214600904846FFF799FF02A941F842
:10173000240001982844401C402806DA0198401CE7
:1017400007440198401C054400E002E0641CB442D8
:10175000E3DB00BF524602A93046C04732B0BDE8C5
:10176000F08700002DE9F04190B004460E46174680
:1017700000BF00BF00BF00BF04F1A80002F0C3F922
:1017800048B34022694604F1A80002F08EF90546EC
:10179000002D1FDD201D02F00AFC5021201D02F04B
:1017A000AAFB04F54170FFF7E9FD8046414604F5C8
:1017B0004170D4F8F832D4F8002398472946684697
:1017C000D4F8F832D4F800239847694604F1600051
:1017D00002F001F900BF10B0BDE8F0812DE9F04141
:1017E00090B004460E46174600BF00BF00BF00BFC2
:1017F00004F1A80002F073F948B34022694604F1ED
:10180000A80002F052F90546002D1FDD201D02F050
:10181000CEFB5021201D02F06EFB04F54170FFF756
:10182000ADFD8046414604F54170D4F8F832D4F855
:101830000023984729466846D4F8F832D4F80023A4
:101840009847694604F1600002F0C5F800BF10B087
:10185000BDE8F08170B504460D46164600BF00BFD6
:1018600000BF00BF04F1600002F09EF818B1012132
:10187000201D02F040FB70BD70B504460D461646B3
:1018800000BF00BF00BF00BF04F1600002F097F886
:1018900018B10121201D02F00BFB70BDF0B591B015
:1018A00004460D46164600BF00BF00BF00BF4022E1
:1018B00001A904F1600002F0A8F804F1600002F050
:1018C000BBF801A904F1A80002F0CAF8FCA0FFF7D8
:1018D00055FD07463946FAA0D4F8F832D4F800236B
:1018E000984701A8D4F8FC22D4F80013904704F5D7
:1018F0004170FFF743FD0746394604F54170D4F8BF
:10190000F832D4F80023984711B0F0BD2DE9F0412A
:1019100004460D46164600BF00BF00BF00BF04F1DD
:10192000600002F089F80221E6A0D4F8F832D4F879
:1019300000239847E2A0FFF721FD07463946E0A0C3
:10194000D4F8F832D4F80023984704F54170FFF733
:1019500015FD0746394604F54170D4F8F832D4F83D
:1019600000239847BDE8F0812DE9F74390B0044685
:10197000894600BF00BF4FF0FF30C4F8B0029DF8A9
:10198000481004F1600001F08BFF50B3402269461B
:1019900004F1600002F039F8064604F1600001F03D
:1019A000EBFF0546771B012112A8D4F8F832D4F8D2
:1019B00000239847002F13DD711B0DEB0500D4F8B1
:1019C000F832D4F8002398474FF0000805E00121D1
:1019D000201D02F090FA08F10108B845F7DB00BFBE
:1019E00000BF13B0BDE8F0832DE9F04790B0044686
:1019F0008946924600BF00BF00BF00BF04F16000EF
:101A000001F074FF002839D04022694604F16000DB
:101A100001F0FBFF804604F1600001F0ADFF0646D7
:101A2000A8EB06050121201D02F065FA002D19DD45
:101A30000DEB06002946D4F8F832D4F80023984775
:101A40000121A1A0D4F8F832D4F800239847002748
:101A500004E00121201D02F04EFA7F1C681C874221
:101A6000F7DB0AE0012198A0D4F8F832D4F800237B
:101A700098470121201D02F03EFA00BF10B0BDE8DA
:101A8000F0872DE9F04790B004468946924600BFA2
:101A900000BF00BF00BF04F1600001F04BFF002851
:101AA00035D04022694604F1600001F0AEFF804667
:101AB00004F1600001F060FF0646A8EB0605002D6A
:101AC00019DD0DEB06002946D4F8F832D4F80023CE
:101AD000984701217CA0D4F8F832D4F80023984725
:101AE000002704E00121201D02F005FA7F1C681C7C
:101AF0008742F7DB0AE0012173A0D4F8F832D4F86A
:101B0000002398470121201D02F0F5F900BF10B015
:101B1000BDE8F0872DE9F04192B004460D46164627
:101B200000BF00BF00BF00BFD4F8B002002841DAF8
:101B3000402204F52D7104F1600001F066FF0028D9
:101B400032DD0020C4F8B0024020009002AB04F562
:101B50002D7204F1A800D4F8B01201F0EEFF20BB02
:101B600002A8FFF70BFC0746201D02F020FA5021C7
:101B7000201D02F0C0F904F54170FFF7FFFB80461D
:101B8000414604F54170D4F8F832D4F80023984760
:101B9000394602A8D4F8F832D4F80023984702A9AD
:101BA00004F1600001F017FF66E04FF0FF30C4F869
:101BB000B00261E0D4F8B002401CC4F8B00240208A
:101BC000009002AB04F52D7204F1A800D4F8B01215
:101BD00001F0B3FF20BB02A8FFF7D0FB0746201D92
:101BE00002F0E5F95021201D02F085F904F541705D
:101BF000FFF7C4FB8046414604F54170D4F8F83243
:101C0000D4F800239847394602A8D4F8F832D4F81B
:101C10000023984702A904F1600001F0DCFE2BE0EC
:101C200004F52D70FFF7AAFB0746201D02F0BFF94F
:101C30005021201D02F05FF904F54170FFF79EFB73
:101C40008046414604F54170D4F8F832D4F80023B8
:101C50009847394604F52D70D4F8F832D4F80023AB
:101C6000984704F52D7104F1600001F0B4FE4FF0C7
:101C7000FF30C4F8B00200BF12B0BDE8F0812DE91A
:101C8000F04104460E46174600BF00BF00BF00BF2C
:101C90005021201D02F02FF904F54170FFF76EFB73
:101CA0000546294604F54170D4F8F832D4F80023EB
:101CB000984704F1600001F062FEBDE8F081000089
:101CC0000D0A00005E430000200000002DE9F041F5
:101CD00090B004460E46174600BF00BF00BF00BFCD
:101CE0004022694604F1600001F08FFE6846FFF76C
:101CF00045FB05465021201D02F0FDF804F541701A
:101D0000FFF73CFB8046414604F54170D4F8F832B9
:101D1000D4F80023984729466846D4F8F832D4F816
:101D20000023984704F1600001F033FE10B0BDE8D5
:101D3000F0812DE9F04705460E4617464FF0110990
:101D4000474C4FF000080FE02078B04209D160788E
:101D5000B84206D1286D3A46314663689847BDE8D7
:101D6000F087083408F10108B8F1110FECDB0C2EF4
:101D700005D13A463146286DFFF7F6FDEFE700BF83
:101D8000EDE72DE9F04104460E4615461F46DDF805
:101D90001880C4F8F462C4F8F852C4F8FC72C4F8AD
:101DA000008330A104F54170FFF7F2FAE4650022E8
:101DB0002946201D01F0FAFFAFF2890104F10C0061
:101DC00001F030FF04F1600001F064FD04F1A800AF
:101DD00001F038FE4FF0FF30C4F8B00244F2673033
:101DE0002060BDE8F08138B5044644F267312068D0
:101DF000884200D038BD04F54170FFF7BFFA0546B0
:101E0000294604F54170D4F8F832D4F800239847F5
:101E10000DE001216846D4F8F432D4F80023984745
:101E20000122694604F10C0001F09AFF00BFF0E7BF
:101E300070B504460D4644F267312068884200D0F0
:101E400070BD294604F54170FFF7A2FA00BFF7E71D
:101E50000023036002230B6000231360704700001F
:101E6000546C00083E0000002DE9F04105460E4686
:101E7000174615B90020BDE8F081FE4C0AE0216844
:101E80003068FFF7A6FA20B931462846A268904785
:101E9000F1E70C3420680028F1D1F7480168F7A079
:101EA000FFF705F90020E6E770B504460D4600226D
:101EB000F4492046FFF720FC70BD70B5A0B0054680
:101EC0000E46EC4C14E068462168FFF761FAEEA17B
:101ED0006846FFF76BFA68466168FFF767FAEBA19F
:101EE0006846FFF763FA6946E9A0FFF7E0F80C34AB
:101EF00020680028E7D120B070BD70B505460C46BB
:101F0000022D06D0E3480168E1A0FFF7D0F80020D9
:101F100070BDE1A16068FFF75CFA30B9DF48016885
:101F2000DBA0FFF7C4F80020F2E7DDA16068FFF74F
:101F300050FA30B9DB480168D5A0FFF7B8F80020A7
:101F4000E6E7D9480168D2A0FFF7B1F84FF0FF30BB
:101F5000DEE770B505460C46022D05D0D3A02168FA
:101F6000FFF7A5F8012070BDD3A16068FFF731FA33
:101F700020B90120D14908600020F4E7D0A16068B1
:101F8000FFF727FA18B90020CC490860EBE7CDA08D
:101F90006168FFF78CF80120E5E738B505460C4687
:101FA000D248006820F47000D049086008460068F4
:101FB00040F480000860002140F2833003F0EDF827
:101FC0000020CB490880022D05D0CAA02168FFF768
:101FD0006EF8012038BD6946201DFFF747F920B98A
:101FE000D1A0FFF764F80120F4E70098002808DB8F
:101FF0000098B0F5617F04DABD49009808800020A0
:10200000E8E7D2A0FFF753F80120E3E72DE9F0431A
:1020100087B0804689460024002700260223092233
:10202000082101200096FEF7EDFA002500BF04E02C
:10203000552005A90855601CC4B2082CF8DB05A979
:102040002846FEF76AFD30B1CCA0FFF730F801203A
:1020500007B0BDE8F0834FF47A70FEF7B3FA0020C2
:10206000C94908700EE040F2FF710298884209D118
:102070009DF80C10C5A0FFF71AF8C3480078401C63
:10208000C149087002A903A8FEF767FD0700EAD15D
:10209000C4490880BC480178C3A0FFF708F80020B5
:1020A000D6E72DE9F34F91B00C460025AB46002052
:1020B00009900A900B900C901198042807D0C24800
:1020C0002168FEF7F4FF012013B0BDE8F08F08A9E6
:1020D000201DFFF7CBF80898002802DB08980F288E
:1020E00004DDBAA0FEF7E3FF0120EDE7C0A1A06880
:1020F000FFF76FF908B9112619E0BFA1A068FFF733
:1021000068F908B9222612E0BDA1A068FFF761F9BD
:1021100008B933260BE0BCA1A068FFF75AF908B94B
:10212000442604E0BBA0FEF7C2FF0120CCE707A9CC
:1021300004F10C00FFF79AF80798002802DB0798D3
:10214000FF2804DDC0A0FEF7B2FF0120BCE701219B
:10215000089801EB00100690F0B28DF83C000125C4
:1021600004E055200FA94855681CC5B2082DF8DBBE
:102170009DF843009DF842109DF841209DF84030A5
:10218000CDE90232CDE904109DF83F009DF83E10E4
:10219000CDE900109DF83D309DF83C20B6480899E7
:1021A000FEF785FF0FA90698FEF7B7FC18B173A0DC
:1021B000FEF77DFFDFE1B1A0FEF779FF012008996E
:1021C000884078490988084376490880079800289C
:1021D000F0DD0621089801EB001006900798C0B2C8
:1021E0008DF83C00012504E055200FA94855681CD6
:1021F000C5B2082DF8DB0FA90698FEF78EFC20B1BA
:10220000A0A0FEF754FF01205EE7A4A0FEF74FFF59
:102210004FF4FA70FEF7D6F90898002829D100BFCC
:1022200006A90DA8FEF799FC07460FB3069800F023
:102230000F0007281CD10698C0F3031008900898D7
:10224000401E09A9085C401CC1B20898401E09AA9A
:1022500011540898401E09A9085C012808D19DF86E
:1022600035009DF8341040EA01200FFA80F91FE193
:1022700043E148E1DC6C00081800002025730D0ADA
:1022800000000000691E0008093A00000D0A000065
:1022900025730000200000207379730024000020C3
:1022A00076657200280000201C0000202573206F36
:1022B0006E2F6F66660D0A006F6E000098812342D4
:1022C0006F666600257320697320696C6C656761B1
:1022D0006C2E20506C6561736520696E707574207A
:1022E0006F6E206F72206F66660D0A00000C014051
:1022F000342C01402573205B302D3839395D2E2078
:10230000307E3839392069732074686520627269BB
:102310006768746E6573732076616C7565206F668F
:10232000206C65642E0D0A00746865206172677503
:102330006D656E74206D7573742062652061206E0A
:10234000756D6265722E0D0A0000000074686520CC
:102350006272696768746E6573732076616C756507
:10236000206D757374206265747765656E2030200A
:10237000616E64203839392E0D0A00006661696C7F
:1023800065642E0D0A000000160000206472697654
:10239000657220307825303278206F6E6C696E65FA
:1023A0002E0D0A0014000020546F74616C2025303B
:1023B000326420647269766572287329206F6E6CAE
:1023C000696E652E0D0A0000807200086D6F746FD3
:1023D000725F6E756D6265722069732062657477D5
:1023E00065656E203020616E642031352E0D0A0047
:1023F00070776D310000000070776D3200000000D2
:1024000073706565640000006C6F636174696F6E62
:1024100000000000617661696C61626C65206D6F1F
:10242000746F725F6D6F64652069732070776D31B2
:102430002F70776D322F73706565642F6C6F6361D9
:1024400074696F6E2E0D0A00617661696C61626C51
:102450006520706572696F6420697320307E323543
:10246000352E203020666F72206E6F2066656564A1
:102470006261636B2E0D0A00407300084F4B2E0DF6
:102480000A00000053657420666565646261636BD1
:10249000206661696C65642E0D0A00005365742026
:1024A000666565646261636B204F4B2E0D0A000008
:1024B0009DF837009DF8361040EA01200FFA80FAA7
:1024C0009DF8380000069DF8391040EA01409DF85B
:1024D0003A1040EA01209DF83B1040EA01085346BB
:1024E0004A46CDF800800698C0F30711F0A0FEF729
:1024F000DEFD0BF1010000F0FF0BF9480078834589
:10250000FFF68EAE37E000BF06A90DA8FEF725FB4B
:102510000746002FF8D00721089801EB0010069914
:102520008842F1D19DF835009DF8341040EA012031
:102530000FFA80F99DF837009DF8361040EA012027
:102540000FFA80FA9DF8380000069DF8391040EA2D
:1025500001409DF83A1040EA01209DF83B1040EA06
:10256000010853464A46CDF800800698C0F303118F
:10257000CFA0FEF79CFD0020A6E52DE9FF41064611
:102580000C460025032E07D0D6A02168FEF78FFD4C
:10259000012004B0BDE8F08101A9201DFEF766FE10
:1025A0000198002802DB01980F2805DDAFF2E41046
:1025B000FEF77DFD0120ECE7694604F10800FEF717
:1025C00055FED2490098884203DB49420098884270
:1025D00004DDCFA0FEF76BFD0120DAE701200199B1
:1025E0008840D3490988084048B9D148007800F0AC
:1025F000010020B9CFA0FEF75AFD0120C9E702254E
:1026000004E0552002A94855681CC5B2082DF8DB26
:102610000321019801EB00170098000A8DF80800CB
:102620000098C0B28DF8090002A93846FEF775FA85
:1026300028B1AFF2B820FEF73AFD0120A9E700204B
:10264000A7E72DE9FF4106460C46002541F28838F0
:10265000032E07D0BDA02168FEF729FD012004B09C
:10266000BDE8F08101A9201DFEF700FE01980028B9
:1026700002DB01980F2805DDAFF2B020FEF717FD51
:102680000120ECE7694604F10800FEF7EFFD009831
:1026900010F57A7F03DB0098B0F57A7F04DDB7A0F0
:1026A000FEF705FD0120DAE7012001998840A049E5
:1026B0000988084048B99E48007800F0010020B918
:1026C0009CA0FEF7F4FC0120C9E7042504E0552096
:1026D00002A94855681CC5B2082DF8DB04210198F1
:1026E00001EB00174FEA18208DF8080008F0FF00F2
:1026F0008DF809000098000A8DF80A000098C0B211
:102700008DF80B0002A93846FEF707FA28B1AFF2A0
:102710009430FEF7CCFC0120A1E700209FE7F0B544
:1027200085B005460C4641F28837042D05D09C48FB
:10273000FEF7BDFC012005B0F0BD02A9201DFEF78B
:1027400095FD0298002802DB02980F2805DDAFF204
:102750008430FEF7ACFC0120EDE701A904F108008C
:10276000FEF784FD0198002803DB0198B0F57A7F1D
:1027700004DD8CA0FEF79BFC0120DCE7694604F138
:102780000C00FEF773FD8F490198884203DB494234
:102790000198884204DD8CA0FEF789FC0120CAE77D
:1027A00001200299884062490988084048B9604878
:1027B000007800F0010020B95EA0FEF778FC01204F
:1027C000B9E70521029801EB0016380A8DF80C00D4
:1027D000F8B28DF80D000198000A8DF80E000198EE
:1027E000C0B28DF80F000098000E8DF81000009810
:1027F000000C8DF811000098000A8DF81200009866
:10280000C0B28DF8130003A93046FEF786F928B14F
:10281000AFF29840FEF74BFC01208CE700208AE7DE
:102820002DE9F04F8DB082460E460027BB460020B2
:102830000290039004900590BAF1030F06D06DA0AA
:10284000FEF735FC01200DB0BDE8F08F07A9301D63
:10285000FEF70CFD0798002802DB07980F2805DD1E
:10286000AFF29840FEF723FC0120ECE706A906F141
:102870000800FEF7FBFC0698002802DB0698FF28FC
:1028800004DD6CA0FEF713FC0120DCE701200799B2
:10289000884027490988084048B92548007800F051
:1028A000010020B923A0FEF702FC0120CBE7D1E014
:1028B00064726976657220253032643A20637572DD
:1028C00072656E743D25642073706565643D256492
:1028D000206C6F636174696F6E3D256C640D0A0036
:1028E000160000202573206D6F746F725F6E756D1A
:1028F00062657228302D3135292070776D282D358D
:102900003030307E35303030290D0A0078ECFFFF52
:10291000617661696C61626C652070776D206973A6
:10292000202D353030307E353030302E0D0A00000D
:1029300014000020736574206D6F746F72206D6FCA
:1029400064652066697273742E0D0A002573206D0C
:102950006F746F725F6E756D62657228302D3135E0
:1029600029206D6F746F725F7370656564282D31F7
:102970003030307E31303030290D0A0061766169A7
:102980006C61626C65207370656564206973202DCD
:10299000313030307E313030302E0D0A00000000F2
:1029A000E8710008617661696C61626C6520737022
:1029B00065656420697320307E313030302E0D0A19
:1029C00000000000C0B4B3FF617661696C61626CA5
:1029D00065206C6F636174696F6E206973202D359B
:1029E0003030303030307E353030303030302E0DB9
:1029F0000A0000006662206D6F746F725F6E756D05
:102A000062657228302D3135292066656564626102
:102A1000636B5F696E74657276616C28302D323538
:102A2000352C203020666F72207278206F6E6C79A2
:102A3000290D0A00617661696C61626C65207065C0
:102A400072696F6420697320307E3235352E0D0A2D
:102A500000000000069820B30621079801EB001043
:102A600008900698C0B28DF82C00012704E055208C
:102A70000BA9C855781CC7B2082FF8DB0BA908981A
:102A8000FEF74BF828B1AFF20460FEF710FB01200F
:102A9000D9E6AFF2F850FEF70AFB4FF4FA70FDF7F3
:102AA00091FD0798002852D100BF08A909A8FEF798
:102AB00054F80446002C45D0089800F00F00072871
:102AC00040D10898C0F3031007900798401E02A950
:102AD000085C401CC1B20798401E02AA1154079816
:102AE000401E02A9085C01282CD19DF825009DF804
:102AF000241040EA01200FFA80F89DF827009DF885
:102B0000261040EA01200FFA80F99DF828000006FF
:102B10009DF8291040EA01409DF82A1040EA012062
:102B20009DF82B1040EA01054B4642460095089857
:102B3000C0F30711AFF28820FEF7B9FA0BF10100DC
:102B400000F0FF0BFE4800788345AEDB37E000BFA6
:102B500008A909A8FEF701F80446002CF8D00721BF
:102B6000079801EB001008998842F1D19DF82500E3
:102B70009DF8241040EA01200FFA80F89DF8270004
:102B80009DF8261040EA01200FFA80F99DF82800F0
:102B900000069DF8291040EA01409DF82A1040EAFD
:102BA00001209DF82B1040EA01054B464246009556
:102BB0000898C0F30311AFF20830FEF778FA00204E
:102BC00041E62DE9FC4781468A460024A04641F2B1
:102BD00088360027042404E055200DF80400601C0A
:102BE000C4B2082CF8DB042000EB0815300A8DF87D
:102BF0000000F0B28DF80100380A8DF80200F8B23A
:102C00008DF8030069462846FDF787FF30B1AFF61F
:102C10009400FEF74CFA0120BDE8FC870020FBE79A
:102C20002DE9FE4306460C46002541F28838022E67
:102C300006D0C4A02168FEF73AFA0120BDE8FE8361
:102C40006946201DFEF712FB0098002803DB009860
:102C5000B0F57A7F05DDAFF2B420FEF728FA012047
:102C6000ECE7042504E0552001A94855681CC5B2CD
:102C7000082DF8DB04274FEA18208DF8040008F02F
:102C8000FF008DF805000098000A8DF806000098F6
:102C9000C0B28DF8070001A93846FDF73EFF28B104
:102CA000AFF62810FEF703FA0120C7E70020C5E7BA
:102CB0002DE9FE4306460C46002541F28838022ED7
:102CC00006D0A0A02168FEF7F2F90120BDE8FE833E
:102CD0006946201DFEF7CAFA0098002803DB009819
:102CE000B0F57A7F05DDAFF24430FEF7E0F9012060
:102CF000ECE7042504E0552001A94855681CC5B23D
:102D0000082DF8DB04270098C043401C00904FEAD0
:102D100018208DF8040008F0FF008DF805000098D9
:102D2000000A8DF806000098C0B28DF8070001A9CE
:102D30003846FDF7F2FE28B1AFF6C010FEF7B7F93E
:102D40000120C3E70020C1E72DE9F04F8FB020211B
:102D500002A802F043FC4FF0000B002541F2883935
:102D60004FF0010A00BF0AA90BA8FDF7F6FE834643
:102D7000BBF1000F72D00A9800F00F0007286DD148
:102D80000A98C0F30314601E02A931F81000401C19
:102D900081B2601E02AA22F8101002A931F81000B8
:102DA00001285BD19DF82D009DF82C1040EA0120F0
:102DB00006B29DF82F009DF82E1040EA012007B2C0
:102DC0009DF8300000069DF8311040EA01409DF862
:102DD000321040EA01209DF8331040EA01083B46DA
:102DE0003246CDF800800A98C0F30311AFF240508C
:102DF000FEF75DF9052000EB04100A904FEA192058
:102E00008DF8340009F0FF008DF835004FEA1A20E4
:102E10008DF836000AF0FF008DF837009DF830007D
:102E20008DF838009DF831008DF839009DF832009A
:102E30008DF83A009DF833008DF83B000DA90A98F3
:102E4000FDF76BFE40B1AFF6CC20FEF730F9012064
:102E50000FB0BDE8F08F01E0681CC5B238480078BB
:102E6000854280DB0020F3E72DE9F04186B006467D
:102E70000D46002441F28838042E07D036482968D0
:102E8000FEF715F9012006B0BDE8F08100242EE020
:102E900001AA02EB8401621C05EB8200FEF7E6F951
:102EA00001A850F8240010F57A7F05DB01A850F83E
:102EB0002400B0F57A7F05DDAFF24050FEF7F7F859
:102EC0000120E0E7601C012101FA00F02349098894
:102ED000084050B92148007800F0010028B9AFF24D
:102EE000AC50FEF7E4F80120CDE7601CC4B2032C1F
:102EF000CEDB042404E0552004A90855601CC4B2AC
:102F0000082CF8DB4FEA18208DF8100008F0FF00BD
:102F10008DF8110000242CE001A830F82400000AEC
:102F20008DF8120001A810F824008DF81300601C21
:102F3000042101EB001704A93846FDF7EEFD0FE070
:102F400016000020257320737065656428307E317B
:102F5000303030290D0A00003872000814000020BB
:102F600028B1611CFEA0FEF7A2F801208BE7601CCF
:102F7000C4B2032CD0DB002085E72DE9F04F91B0DF
:102F800007460D46002441F28839032F07D0FEA0E2
:102F90002968FEF78CF8012011B0BDE8F08F0DA96B
:102FA000281DFEF763F90D98002803DB0D98B0F596
:102FB0007A7F05DDAFF21460FEF779F80120EBE7C8
:102FC0000CA905F10800FEF751F90C98002803DB65
:102FD0000C98B0F5B47F04DDF3A0FEF768F801208B
:102FE000DAE7601C012101FA00F0F949098808407C
:102FF00050B9F748007800F0010028B9AFF2CC6072
:10300000FEF755F80120C7E70C9803F00BFC019080
:1030100003F04CFAEF4AF04BCDE9020103F05EF801
:103020000022EE4BCDE9040102F0BAFECDE9060123
:1030300002F0DCFD089002F007FC83460D9803F0D7
:10304000F1FB5946099003F019FC06460C9803F071
:10305000E9FB019003F02AFADE4ADF4BCDE90201D9
:1030600003F03CF80022DD4BCDE9040102F098FEAC
:10307000CDE9060102F0BAFD089002F0F1FC8346AA
:103080000D9803F0CFFB5946099003F0F7FB8246F9
:1030900086F0004B584602F099FC00B2ADF82800CB
:1030A000504603F003FACE4ACE4BCDE9020103F0BD
:1030B00015F8CDE90601304603F0F8F900224FF08B
:1030C0008043CDE9020102F06BFECDE90401DDE9A8
:1030D000062302F0BDFDCDE9080102F087FD83461D
:1030E00002F074FC00B2ADF82A00504603F0DEF99D
:1030F000BB4ABC4BCDE9020102F0F0FFCDE906016D
:10310000304603F0D3F900224FF08043CDE90201AD
:1031100002F046FECDE90401DDE9062303F0DCF808
:10312000CDE9080102F062FD834602F04FFC00B2D7
:10313000ADF82C00042404E055200EA90855601CAD
:10314000C4B2082CF8DB4FEA19208DF8380009F0DA
:10315000FF008DF8390000241BE00AA830F81400A5
:10316000000A8DF83A000AA810F814008DF83B0008
:10317000601C042101EB00180EA94046FDF7CDFCB0
:1031800028B1611C76A0FDF792FF012004E7601CC6
:10319000C4B2032CE1DB0020FEE670B504460D4608
:1031A00047214FF6FF7001F085FE47214FF6FF7073
:1031B00001F018FD47214FF6FF7002F070F88A48C1
:1031C000406820F0F000884948600846406840F0B8
:1031D000800048600846C06840F40070C8608348BA
:1031E000806940F480708149886128E080480188C6
:1031F00080A0FDF75CFF8648018886A0FDF757FF99
:103200008B4801888BA0FDF752FF9148018891A05F
:10321000FDF74DFF9748018897A0FDF748FF9D48AF
:1032200001889DA0FDF743FF0020A3490870A34932
:103230000870A34908704FF4FA70FDF7C3F9A1486C
:1032400000680028D2D170BD2DE9F34F95B00E462D
:10325000002441F2883011901598022807D09AA0D6
:103260003168FDF724FF012017B0BDE8F08FAFF6FD
:1032700070617068FEF7ADF808B933270CE096A1CD
:103280007068FEF7A6F808B9222705E093A07168D8
:10329000FDF70DFF0120E7E7601C012101FA00F0B6
:1032A0004B490988084050B94948007800F00100AE
:1032B00028B9AFF68010FDF7FAFE0120D4E74721C8
:1032C0004FF6FF7001F0F6FD47214FF6FF7001F059
:1032D00089FC47214FF6FF7001F0E1FF8A48006842
:1032E00020F47000884908600846006840F48000B7
:1032F0000860002140F2833001F04FFF0020834935
:1033000008803948406820F0F00037494860084696
:10331000406840F0800048600846C06840F4007093
:10332000C8603248806940F48070304988617BE22F
:103330006148007800F0030003280FD15F4800784F
:1033400000F002000228F8D1332F08D1284909885B
:10335000A1F2CC5002F0ABFE0022D9E043E2A1E1A1
:103360004D6F746F722025303264206661696C6520
:10337000642077697468207370656564206D6F647C
:10338000652E0D0A000000002573207370656564CA
:1033900028307E313030302920616E676C652830EE
:1033A0002D333630290D0A00617661696C61626CDB
:1033B0006520616E676C652069732062657477654E
:1033C000656E203020616E64203336302E0D0A0089
:1033D000140000201F85EB51B81E09400080664094
:1033E00083C0CAA145B6EB3F002001400010024057
:1033F000380000205441355F43483120706C7573AC
:10340000652077696474682069732025640D0A005B
:103410003A0000205441355F43483220706C757388
:10342000652077696474682069732025640D0A003B
:103430002C0000205441335F43483320706C757377
:10344000652077696474682069732025640D0A001B
:103450002E0000205441335F43483420706C757354
:10346000652077696474682069732025640D0A0DEE
:103470000A000000440000205441385F43483120D6
:10348000706C757365207769647468206973202592
:10349000640D0A00460000205441385F4348322042
:1034A000706C757365207769647468206973202572
:1034B000640D0A0D0A0000003C00002030000020CE
:1034C0004800002024012442257320737065656440
:1034D0002F70776D0D0A000070776D0025732069DD
:1034E0007320696C6C6567616C2E20506C6561732C
:1034F0006520696E707574207370656564206F72E5
:103500002070776D0D0A0000000C0140342C014042
:10351000C94BCDE9080102F043FCCDE90A0102F0F4
:1035200065FB8246C5490988A1F5BD6002F0BFFD73
:103530000022C14BCDE9080102F032FCCDE90A01BD
:1035400002F054FB0E90BE490988A1F2F65002F039
:10355000AEFD0022BB4BCDE9080102F021FCCDE914
:103560000A0102F043FB81468AF0004049460B9075
:1035700003F08AFA0C9002F029FA00B2ADF83C0090
:10358000484602F093FFCDE908010E9802F08EFF45
:10359000AD4AAE4BCDE9000102F0A0FDCDE904013A
:1035A000504602F083FF00224FF08043CDE9000136
:1035B00002F0F6FBCDE90201DDE9042302F048FB4D
:1035C000CDE90601DDE9082302F086FECDE90A0116
:1035D00002F00CFB0C9002F0F9F900B2ADF83E00DD
:1035E000484602F063FFCDE908010E9802F05EFF45
:1035F000954A964BCDE9000102F070FDCDE904013A
:10360000504602F053FF00224FF08043CDE9000105
:1036100002F0C6FBCDE90201DDE9042302F05CFE05
:10362000CDE90601DDE9082302F056FECDE90A01E5
:1036300002F0DCFA0C9002F0C9F900B2ADF84000DB
:10364000042404E0552013A90855601CC4B2082CBA
:10365000F8DB1198000A8DF84C001198C0B28DF873
:103660004D0000241BE00FA830F81400000A8DF86C
:103670004E000FA810F814008DF84F00601C0421B4
:1036800001EB0010129013A91298FDF746FA20B131
:10369000611CAFF23430FDF70AFD601CC4B2032C8C
:1036A000E1DB98E0222FFCD169480088A0F2CC50E1
:1036B00000EB800005B261480088A0F5BD6000EB1A
:1036C000800000B20D905E480088A0F2F65000EB3A
:1036D00080000FFA80FB6842A0EB0B0000B2ADF84F
:1036E0003C00584602F0E3FCCDE908010D9802F0D9
:1036F000DEFC554A554BCDE9000102F0EFFC0C957C
:10370000CDE9040105EBD571481002F0D0FCCDE9FC
:103710000201DDE9042302F09BFACDE90601DDE9AF
:10372000082302F0D9FDCDE90A0102F091FC00B2B4
:10373000ADF83E00584602F0BAFCCDE908010D98FC
:1037400002F0B5FC404A414BCDE9000102F0C6FC55
:103750000C95CDE9040105EBD571481002F0A7FCEA
:10376000CDE90201DDE9042302F0B6FDCDE9060151
:10377000DDE9082302F0B0FDCDE90A0102F068FCA2
:1037800000B2ADF84000022404E0552013A908550A
:10379000601CC4B2082CF8DB00241AE00FA830F833
:1037A0001400000A8DF84C000FA810F814008DF8D2
:1037B0004D00601C032101EB0010129013A9129818
:1037C000FDF7ABF918B1611C22A0FDF770FC601C7D
:1037D000C4B2032CE2DB0020274908702749087097
:1037E0000A20FCF7EFFE2648008840F26F71081AA5
:1037F0000FFA80F8B8F1000F06DBB8F5617F03DA45
:103800002049A1F8008002E000201E4908801E48DF
:10381000008840F2DC51884203DD01201B4908602A
:1038200002E00020194908601948006800287FF468
:103830007FAD00BF18E50000008051403A00002035
:103840002E0000200000594083C0CAA145B6EB3FBE
:10385000380000204D6F746F72202530326420666E
:1038600061696C656420776974682070776D206D7C
:103870006F64652E0D0A00003C000020300000201F
:1038800044000020342C014046000020988123424F
:1038900024012442002101644164426C8154704738
:1038A000F0B50246506C3F281EDAD2E91070C01BFA
:1038B000461C506C8418506C1044451C002304E0D6
:1038C000207828706D1E641E5B1CB342F8DB106C00
:1038D0001154106C401C1064506C401C506400204B
:1038E000576CD0550120F0BD0020FCE770B50146B3
:1038F000086C00281CDDD1E91060851B086C0844A9
:103900000346086C0844441E086C401E0864486C5A
:10391000401E4864002204E018782070641C5B1C80
:10392000521CAA42F8DB00204E6C8855012070BD65
:103930000020FCE770B50146D1E91002904219DA87
:10394000D1E91060801B451E086C0844431C086CBC
:103950004418486C401E4864002204E01878207027
:10396000641C5B1C521CAA42F8DB00204E6C88557C
:10397000012070BD0020FCE70146086C704701463D
:10398000086C002803DD0020086401207047002037
:10399000FCE70146D1E91002904203DA486C086462
:1039A000012070470020FCE70146086C002804DD78
:1039B000086C401E0864012070470020FCE70146A7
:1039C000D1E91002904204DA086C401C086401201E
:1039D00070470020FCE730B502460C4621461346EE
:1039E000002008E00D781D705B1C491C401C451E22
:1039F000402D00DB02E00D78002DF3D100BF002543
:103A00001D705064556C156430BD70B503460C468E
:103A1000154619462246002007E011F8016B02F80E
:103A2000016B401C854200DC02E00E78002EF4D1D0
:103A300000BF0026167070BD002101644164426C15
:103A4000815470470022C0F80022C0F804220021EF
:103A500002E000224254491CB1F5007FF9DB7047B7
:103A600010B502464024D2F8040204FB0023087873
:103A700008B9002010BD03E0087818705B1C491CD1
:103A800008780028F8D11870D2F80442601CC417D6
:103A900000EB5474E410A0EBC404C2F80442D2F862
:103AA0000402C2F800020120E4E770B503461446A0
:103AB0004026D3F8005206FB0532002008E01578B6
:103AC0000D70491C521C401C651E854200DC02E042
:103AD0001578002DF3D100BF00250D7070BD014693
:103AE000D1F80032581CC31700EB5373DB10A0EB66
:103AF000C302D1F80402904203D0C1F80022012091
:103B000070470020FCE70146D1F8000208B9072001
:103B100002E0D1F80002401E0246D1F804029042B1
:103B200009D0402000FB0213187818B1C1F8002218
:103B30000120704700BF0020FBE72DE9FE4F04463F
:103B40000F46154698462846FDF718FC02904FF0A0
:103B50000009002637E0D4F800128819C11700EBDD
:103B60005171C910A0EBC10101914021019801FBE5
:103B7000004A5046FDF702FC0090029900988842E6
:103B800001DA009800E0029883465A4629465046DA
:103B9000FDF749FCB0B9BBF1000F13DDB9450FD1FA
:103BA0005046FDF7EBFB0C99884203DB4FF0FF30EA
:103BB000BDE8FE8F51464046FDF7EAFB0020F7E7DF
:103BC00009F10109761C082EC5DB4FF0FF30EFE745
:103BD00001460A46002001E0401C521C1378002BCD
:103BE000FAD1704730B503460A467D256C4900245A
:103BF0000CE00868984207D10879904204DC4879C3
:103C0000904201DB887930BD0831641C7D2CF0DBEB
:103C10000020F8E701466348405C7047014662486F
:103C2000405C70470C22027000220272C264C272B1
:103C3000416070472DE9F04104460E4615460F2EAF
:103C40005AD2DFE806F05954181011090A170E0D60
:103C50000C29080B0F0000BF00BF00BF00BF00BF52
:103C600000BF00BF00BF00BF2A4631462046636840
:103C7000984742E041E004F10800FFF7A9FF07463A
:103C8000781C022802DD0120E07204E038467F1C27
:103C900004F108010D5430E03B2D0AD1E06C401CCA
:103CA000E0640022E06C401E04F10C0141F8202089
:103CB0001CE0E16C19B90121E1640021E160E16CD3
:103CC000481E04F10C0151F8201001EB81014A005B
:103CD00004F10C0141F8202051F82020A5F1300119
:103CE0000A4404F10C0141F8202000BF05E0002047
:103CF0002072E064E07200E000BF00BFBDE8F08128
:103D00002DE9F04704460D4692462E1105F00F07A7
:103D1000FEB12078FFF782FF80463046FFF77AFF3A
:103D20008146B8F1000F04D0002241462046FFF73B
:103D300081FF27B1524639462046FFF77BFFB9F194
:103D4000000F04D0002249462046FFF773FF26707B
:103D500004E0524639462046FFF76CFFBDE8F08785
:103D60002DE9F04706460D461746002414E015F8E5
:103D7000049049460020FFF735FF8046B8F1000F58
:103D800004D130784946FFF72DFF80462A5D414631
:103D90003046FFF7B5FF641CBC42E8DBBDE8F087A6
:103DA000C06D0008A8710008B771000803461960CB
:103DB0005A60002070477CB504460D4616461B200D
:103DC0008DF800005B208DF801000A2096FBF0F0D2
:103DD0003030C0B28DF802000A2096FBF0F100FBF3
:103DE00011603030C0B28DF803003B208DF8040024
:103DF0000A2095FBF0F03030C0B28DF805000A20A3
:103E000095FBF0F100FB11503030C0B28DF8060088
:103E100048208DF8070008216846D4E90032984709
:103E200000207CBD7CB504460D461B208DF80000AB
:103E30005B208DF801000A2095FBF0F03030C0B215
:103E40008DF802000A2095FBF0F100FB1150303094
:103E5000C0B28DF8030041208DF8040005216846AA
:103E6000D4E90032984700207CBD7CB504460D465D
:103E70001B208DF800005B208DF801000A2095FBC7
:103E8000F0F03030C0B28DF802000A2095FBF0F15E
:103E900000FB11503030C0B28DF8030042208DF885
:103EA000040005216846D4E90032984700207CBD13
:103EB0007CB504460D461B208DF800005B208DF874
:103EC00001000A2095FBF0F03030C0B28DF80200FE
:103ED0000A2095FBF0F100FB11503030C0B28DF894
:103EE000030043208DF8040005216846D4E9003220
:103EF000984700207CBD7CB504460D461B208DF8FC
:103F000000005B208DF801000A2095FBF0F03030B6
:103F1000C0B28DF802000A2095FBF0F100FB1150B1
:103F20003030C0B28DF8030044208DF80400052124
:103F30006846D4E90032984700207CBD38B5044675
:103F40001B208DF800005B208DF8010073208DF898
:103F5000020003216846D4E900329847002038BDAA
:103F600038B504461B208DF800005B208DF8010059
:103F700075208DF8020003216846D4E90032984785
:103F8000002038BD38B504461B208DF800005B20AA
:103F90008DF8010032208DF802004A208DF80300D0
:103FA00004216846D4E900329847002038BD38B56E
:103FB00004461B208DF800005B208DF801003220A4
:103FC0008DF802004B208DF8030004216846D4E9E7
:103FD00000329847002038BD7CB504460D461B20B2
:103FE0008DF800005B208DF8010005F11E000A210C
:103FF00090FBF1F03030C0B28DF8020005F11E00E8
:1040000090FBF1F201FB12003030C0B28DF80300DA
:104010006D208DF8040005216846D4E900329847E8
:1040200000207CBD7CB504460D461B208DF80000A9
:104030005B208DF8010005F128000A2190FBF1F0CA
:104040003030C0B28DF8020005F1280090FBF1F28B
:1040500001FB12003030C0B28DF803006D208DF8E6
:10406000040005216846D4E90032984700207CBD51
:104070007CB504460D461B208DF800005B208DF8B2
:1040800001000A2095FBF0F03030C0B28DF802003C
:104090000A2095FBF0F100FB11503030C0B28DF8D2
:1040A00003006D208DF8040005216846D4E9003234
:1040B000984700207CBD7CB504460D4616461B2063
:1040C0008DF800005B208DF801000A2095FBF0F0D0
:1040D0003030C0B28DF802000A2095FBF0F100FBF1
:1040E00011503030C0B28DF803003B208DF8040031
:1040F0000A2096FBF0F03030C0B28DF805000A209F
:1041000096FBF0F100FB11603030C0B28DF8060074
:1041100072208DF8070008216846D4E900329847DC
:1041200000207CBD7CB504460D46BDB11B208DF83A
:1041300000005B208DF801003F208DF80200322046
:104140008DF8030035208DF8040068208DF80500F7
:1041500006216846D4E90032984717E01B208DF805
:1041600000005B208DF801003F208DF80200322016
:104170008DF8030035208DF804006C208DF80500C3
:1041800006216846D4E90032984700BF00207CBD74
:1041900038B504461B208DF8000063208DF801001F
:1041A00002216846D4E900329847002038BD2DE945
:1041B000F04704460F4690461E46DDF820904246E2
:1041C00039462046FFF7F7FD3D4605E0012129A0CD
:1041D000D4E9003298476D1CB542F7DD4A463946AE
:1041E0002046FFF7E8FD3D4605E0012121A0D4E986
:1041F000003298476D1CB542F7DD454614E02A466B
:1042000039462046FFF7D7FD01211AA0D4E9003234
:1042100098472A4631462046FFF7CDFD012115A0DB
:10422000D4E9003298476D1C4D45E8DD0020BDE81B
:10423000F0872DE9F04704460E4617469846DDF80C
:1042400020A03D4610E02A4631462046FFF7B3FD48
:10425000B14606E0012107A0D4E90032984709F1F0
:104260000109C145F6DD6D1C5545ECDD0020BDE8BA
:10427000F0870000200000002DE9F04106460C46C2
:104280001746002503E0FCF7BAFC70556D1CA542EB
:10429000F9DB2046BDE8F0812DE9F04106460C46E9
:1042A0001746002503E0705DFCF785FC6D1CA542F8
:1042B000F9DB2046BDE8F08170B504460D4629467D
:1042C0002046FDF7F1FD002070BD70B586B00024DA
:1042D000002602230922082101200096FCF792F90A
:1042E000002500BF04E0552004A90855601CC4B295
:1042F000082CF8DB04A92846FCF70FFC28B1FEA027
:10430000FCF7D5FE012006B070BD4FF47A70FCF7C3
:1043100059F90020FB4908700EE040F2FF71019846
:10432000884209D19DF80810F7A0FCF7C0FEF548B7
:104330000078401CF349087001A902A8FCF70DFCA5
:104340000028EAD1EF480178F5A0FCF7B0FE002084
:10435000D9E72DE9F04F91B00025AA460020099039
:104360000A900B900C9000244FF0330B0A20089019
:10437000012000EB041007908DF83CB0012504E00B
:1043800055200FA94855681CC5B2082DF8DB9DF8CB
:1043900043009DF842109DF841209DF84030CDE942
:1043A0000232CDE904109DF83F009DF83E10CDE9A2
:1043B00000109DF83D309DF83C202146E048FCF778
:1043C00076FE0FA90798FCF7A8FB18B1CAA0FCF766
:1043D0006EFEAEE0DBA0FCF76AFE08980028F8DD70
:1043E000062000EB041007900898C0B28DF83C003E
:1043F000012504E055200FA94855681CC5B2082DB9
:10440000F8DB0FA90798FCF788FB30B1CFA0FCF7C9
:104410004EFE012011B0BDE8F08FD2A0FCF747FEA0
:104420004FF4FA70FCF7CEF8002C4CD100BF07A96E
:104430000DA8FCF792FB0646002E3FD0079800F02F
:104440000F0007283AD10798C0F30314601E09A98A
:10445000085C401CC1B2601E09AA115409A9085C7D
:1044600001282BD19DF835009DF8341040EA012039
:104470000FFA80F89DF837009DF8361040EA0120C9
:104480000FFA80F99DF8380000069DF8391040EACF
:1044900001409DF83A1040EA01209DF83B1040EAA7
:1044A00001074B46424600970798C0F30711B2A098
:1044B000FCF7FDFD0AF1010000F0FF0A91480078C9
:1044C0008245B4DB35E000BF07A90DA8FCF745FB2A
:1044D0000646002EF8D0072000EB0410079988420A
:1044E000F2D19DF835009DF8341040EA01200FFA12
:1044F00080F89DF837009DF8361040EA01200FFA49
:1045000080F99DF8380000069DF8391040EA014016
:104510009DF83A1040EA01209DF83B1040EA01075F
:104520004B46424600970798C0F3031192A0FCF750
:10453000BEFD00206EE72DE9F04F95B000244FF04E
:10454000330A41F2883B47214FF6FF7000F0B2FC7E
:1045500047214FF6FF7000F045FB47214FF6FF70F3
:1045600000F09DFE9048006820F470008E490860BD
:104570000846006840F480000860002140F2833063
:1045800000F00BFE0020894908808948406820F02F
:10459000F000874948600846406840F08000486065
:1045A0000846C06840F40070C8608248806940F4E2
:1045B00080708049886114E27F48007800F0030031
:1045C00003287DD17D48007800F002000228F8D150
:1045D000BAF1330F75D17A490988A1F2CC5001F0B4
:1045E00066FD0022774BCDE9080101F0D9FBCDE94A
:1045F0000A0101F0FBFA804673490988A1F5BD6004
:1046000001F055FD00226F4BCDE9080101F0C8FB18
:10461000CDE90A0101F0EAFA0E906C490988A1F28D
:10462000F65001F044FD0022694BCDE9080101F08C
:10463000B7FBCDE90A0101F0D9FA074688F000403E
:1046400039460B9002F020FA0C9001F0BFF900B24D
:10465000ADF83C00384601F029FFCDE908010E987D
:1046600001F024FF5B4A5C4BCDE9000101F036FD0F
:10467000CDE90401404601F019FF00224FF08043CC
:10468000CDE9000101F08CFBCDE90201DDE9042355
:1046900001F0DEFACDE90601DDE9082301F01CFE98
:1046A000CDE90A0101F0A2FA0C9001F08FF900B2F5
:1046B000ADF83E00384601F0F9FECDE9080101E011
:1046C00071E1CEE00E9801F0F1FE424A424BCDE995
:1046D000000101F003FDCDE90401404601F0E6FED2
:1046E00000224FF08043CDE9000101F059FBCDE9F4
:1046F0000201DDE9042371E06661696C65642E0DD9
:104700000A0000001600002064726976657220308D
:104710007825303278206F6E6C696E652E0D0A0038
:10472000546F74616C202530326420647269766540
:1047300072287329206F6E6C696E652E0D0A000059
:10474000407300084F4B2E0D0A0000005365742083
:10475000666565646261636B206661696C65642E81
:104760000D0A000053657420666565646261636BC1
:10477000204F4B2E0D0A0000647269766572202569
:104780003032643A2063757272656E743D25642020
:1047900073706565643D2564206C6F636174696F37
:1047A0006E3D256C640D0A00000C0140342C014064
:1047B00000200140001002403C000020300000209A
:1047C00038000020008051403A0000202E000020D8
:1047D0000000594083C0CAA145B6EB3F01F07CFD03
:1047E000CDE90601DDE9082301F076FDCDE90A01F6
:1047F00001F0FCF90C9001F0E9F800B2ADF84000CE
:10480000042404E0552012A90855601CC4B2082CE9
:10481000F8DB4FEA1B208DF848000BF0FF008DF805
:10482000490000241AE00FA830F81400000A8DF89F
:104830004A000FA810F814008DF84B00601C0421EA
:1048400001EB0010119012A91198FCF766F918B14C
:10485000611C87A0FCF72BFC601CC4B2032CE2DBBC
:1048600099E0BAF1220FFBD18B480088A0F2CC501E
:1048700000EB800005B289480088A0F5BD6000EB20
:10488000800000B20D9086480088A0F2F65000EB40
:1048900080000FFA80F96842A0EB090000B2ADF881
:1048A0003C00484601F003FCCDE908010D9801F0F9
:1048B000FEFB7C4A7C4BCDE9000101F00FFC0C951E
:1048C000CDE9040105EBD571481001F0F0FBCDE90D
:1048D0000201DDE9042301F0BBF9CDE90601DDE9C0
:1048E000082301F0F9FCCDE90A0101F0B1FB00B2A7
:1048F000ADF83E00484601F0DAFBCDE908010D981D
:1049000001F0D5FB674A684BCDE9000101F0E6FBF9
:104910000C95CDE9040105EBD571481001F0C7FBFA
:10492000CDE90201DDE9042301F0D6FCCDE9060161
:10493000DDE9082301F0D0FCCDE90A0101F088FB94
:1049400000B2ADF84000022404E0552012A9085539
:10495000601CC4B2082CF8DB00241AE00FA830F861
:104960001400000A8DF848000FA810F814008DF804
:104970004900601C032101EB0010119012A911984D
:10498000FCF7CBF818B1611C48A0FCF790FB601C49
:10499000C4B2032CE2DB00204D4908704D49087079
:1049A0000A20FBF70FFE4C48008840F26F71081A8E
:1049B00006B2002E05DBB6F5617F02DA47490E80AC
:1049C00002E00020454908804548008840F2DC515B
:1049D000884203DD01204349086002E0002041498C
:1049E00008604148006800287FF4E6AD15B0BDE8D6
:1049F000F08F00B5ADF54F7D0920FBF70EFD482087
:104A0000FBF7A8FD4FF416512420FCF784F9FCF7BE
:104A100091FC47214FF6FF7000F041FC4FF4FA7013
:104A2000FBF7D0FD2E48008840F2DC51884209DDBA
:104A300001202C490860FFF748FCFFF78AFCFFF7CC
:104A40007AFD11E000202749086001A8274B284A79
:104A500028490090FDF795F927A101A8FDF7E8F98D
:104A600001A8FDF7C0F900BF00200DF54F7D00BD86
:104A70004D6F746F722025303264206661696C65F9
:104A8000642077697468207370656564206D6F6455
:104A9000652E0D0A00000000380000203A000020BA
:104AA0002E00002083C0CAA145B6EB3F4D6F746F46
:104AB000722025303264206661696C6564207769F4
:104AC00074682070776D206D6F64652E0D0A00008C
:104AD0003C0000203000002044000020342C014025
:104AE000460000209881234224012442B942000854
:104AF00099420008794200087A6B68663E0000001F
:104B000070B505460C46FE48C06940F00200FC49FD
:104B1000C861FC480580001F0480FA4820380088DE
:104B200040F00100F74920390880F6482C38008809
:104B300040F00100F3492C39088002231D22032193
:104B40000120FBF77DFB70BDED4AD26942F0020205
:104B5000EB4BDA611A46926942F001029A61EA4A25
:104B6000526822F48062E84B5A601A46526842F456
:104B700000625A60E24A926942F00802E04B9A6190
:104B8000E24A126822F47002E04B1A601A46126878
:104B900042F430021A60DB4A1080121F1180D94A99
:104BA000143A128822F48052D64B143B1A801A46CB
:104BB000128842F4C0421A801A46128842F40062F7
:104BC0001A80D04A0C3A128842F01002CD4B0C3BAE
:104BD0001A80CC4A2C3A128842F00102C94B2C3B75
:104BE0001A80704770B504460D46C548C06940F04C
:104BF0000200C349C8610846806940F0010088612D
:104C0000C148406820F48060BF4948600846406859
:104C100040F400604860BA48806940F00800B84934
:104C20008861BA48006820F0FF00B849086008466B
:104C3000006840F044000860B2480480001F05800E
:104C4000B0481038008840F00100AE4910390880A3
:104C50000846008820F0020008800846008820F0FE
:104C6000040008800846008820F0080008800846F4
:104C700000884FF60F710840A24910390880084695
:104C8000008840F4807008800846008820F4007096
:104C900008800846008820F4806008800846008864
:104CA00020F40060088008460088C0F30B000880EC
:104CB000081D008820F40070091D0880084600883F
:104CC00040F4807008800846008820F40050088076
:104CD0000846008840F4805008808A4820380088C0
:104CE00040F008008749203908800846008840F0D5
:104CF000100008800846008840F0010008808148C4
:104D00002C38008840F001007E492C3908800223AD
:104D10001D2201211846FBF793FA70BD79491C3911
:104D2000088800F0010119B37949097801F00101FF
:104D300031B17849097841F00101764A117005E0F6
:104D40007449097821F00101724A1170704909789B
:104D500001F0020131B16F49097841F002016D4A59
:104D6000117005E06B49097821F00201694A117060
:104D700000F00801002949D06549097801F00101D6
:104D800099B9604910310988634A118060490978EE
:104D900041F001015E4A11705A490C39098841F409
:104DA0000071584A0C3A118030E05A49097801F0F4
:104DB000010179B1584909884942524A1032128892
:104DC0001144564A11805349097821F00101514A92
:104DD000117007E04B49103109884F4A1288891A2F
:104DE0004E4A11804E49097841F001014C4A117038
:104DF0004749097821F00101454A117041490C39B0
:104E0000098821F400713F4A0C3A118000F010012A
:104E1000F1B33F49097801F0020199B939491431D8
:104E20000988404A11803A49097841F00201384A1C
:104E3000117034490C39098841F40051314A0C3A57
:104E4000118032E03349097801F0020179B1354926
:104E5000098849422B4A143212881144324A11807F
:104E60002C49097821F002012A4A117007E02549EE
:104E7000143109882B4A1288891A2B4A1180284933
:104E8000097841F00201264A11702149097800E0B1
:104E90000BE021F002011E4A11701A490C390988F1
:104EA00021F40051174A0C3A11800021154A1C3A8E
:104EB0001180704770B504460D461148C06940F036
:104EC00008000F49C8610846806940F00400886105
:104ED0001648006820F0FF00144908600846006882
:104EE00040F04400086012480480001F058010480C
:104EF0001438008840F001000D491439088019E089
:104F0000001002402C04004000000140000C014051
:104F10003700002036000020320000202C00002046
:104F200030000020340000202E0000200008014046
:104F30002C0C00400846008820F00200088008463B
:104F4000008820F0040008800846008820F008004F
:104F50000880084600884FF60F710840FE49088017
:104F60000846008840F4807008800846008820F4D5
:104F7000007008800846008820F480600880084699
:104F8000008820F40060088008460088C0F30B0009
:104F90000880F1480830008820F00200EE4908310E
:104FA00008800846008840F0010008800846008814
:104FB00020F0200008800846008840F0100008809B
:104FC000E5480C38008840F00200E3490C390880BD
:104FD0000846008840F0040008800846008840F039
:104FE00001000880DC481838008840F00100DA49E8
:104FF000183908800223322200211846FBF720F9D5
:1050000070BDD5490839088800F0010119B3D349AA
:10501000097801F0010131B1D149097841F001016C
:10502000CF4A117005E0CE49097821F00101CC4A40
:105030001170CA49097801F0020131B1C8490978F3
:1050400041F00201C64A117005E0C549097821F016
:105050000201C34A117000F00201002949D0BF4982
:10506000097801F0010199B9BB491C310988BD4A91
:105070001180BA49097841F00101B84A1170B64966
:105080000831098841F00201B34A0832118030E04A
:10509000B349097801F0010179B1B249098849425F
:1050A000AD4A1C3212881144AF4A1180AC490978CC
:1050B00021F00101AA4A117007E0A7491C310988B3
:1050C000A84A1288891AA84A1180A849097841F08B
:1050D0000101A64A1170A149097821F001019F4AF6
:1050E00011709D490831098821F002019A4A08325D
:1050F000118000F00401E9B39849097801F0020138
:1051000099B9954920310988994A118093490978BC
:1051100041F00201914A11708F490831098841F02C
:1051200020018D4A0832118032E08D49097801F062
:10513000020179B18E4909884942874A2032128892
:1051400011448C4A11808649097821F00201844A71
:10515000117007E0804920310988854A1288891A30
:10516000844A11808149097841F002017F4A117017
:105170007A4900E00CE0097821F00201774A1170C9
:1051800075490831098821F02001734A08321180DD
:105190000021714A083A11807047774A926942F4B7
:1051A0000062754B9A611A46926942F004029A6154
:1051B000724A126822F00F02704B1A601A46126887
:1051C00042F00B021A606E4A1080121F11806C4A66
:1051D000143A128842F06002694B143B1A801A4656
:1051E000128822F010021A801A46128842F0080231
:1051F0001A80634A0C3A128842F00102604B0C3B61
:105200001A805F4A1832128842F400425C4B18330D
:105210001A8080225A4B2C3B1A801A46128842F080
:1052200001021A807047544A926942F40052524B6C
:105230009A61544A126822F07062524B1A601A4600
:10524000126842F030621A604F4A1080121F1180BB
:105250004D4A143A128842F060024B4B143B1A80BC
:105260001A46128842F008021A80474A0C3A1288FD
:1052700042F00102444B0C3B1A80434A1832128818
:1052800042F40042404B18331A8080223E4B2C3BA4
:105290001A801A46128842F001021A80704770B5CF
:1052A00004460D463448806940F400503249886114
:1052B0000846806940F0100088613248006820F09C
:1052C0007F40304908600846006840F08840086028
:1052D0002D480480001F05802B481438008840F0BA
:1052E00001002949143908800846008820F002008E
:1052F00008800846008820F00400088008460088DE
:1053000020F008000880084600884FF60F7108401A
:105310001D49143908800846008840F480700880D0
:105320000846008820F4007008800846008820F4B1
:10533000806008800846008820F4006008800846E5
:105340000088C0F30B0008800F480C38008820F05C
:1053500002000D490C3919E0180C004043000020F0
:10536000420000203E000020380000203C000020C9
:10537000400000203A0000200010024004080140D4
:105380002C2C0140001001402C34014008800846BC
:10539000008840F0010008800846008820F02000C6
:1053A00008800846008840F0100008808348008884
:1053B00040F00200814908800846008840F004005F
:1053C00008800846008840F0010008807B480C38BF
:1053D000008840F0010079490C39088001232C2213
:1053E00002211846FAF72CFF01232E2219461846EF
:1053F000FAF726FF70BD7149091D088800F0010108
:1054000019B36F49097801F0010131B16D4909788B
:1054100041F001016B4A117005E06A49097821F0F9
:105420000101684A11706649097801F0020131B141
:105430006449097841F00201624A117005E061494E
:10544000097821F002015F4A11705C49091D098841
:1054500021F00101594A121D118070475749091D59
:10546000088800F00201002951D05549097801F05F
:10547000010199B9514928310988534A118050498D
:10548000097841F001014E4A11704C4914310988E4
:1054900041F00201494A1432118030E0494909784B
:1054A00001F0010179B1484909884942434A28324B
:1054B00012881144454A11804249097821F00101BE
:1054C000404A117007E03D49283109883E4A128858
:1054D000891A3E4A11803E49097841F001013C4A4F
:1054E00011703749097821F00101354A11703349AB
:1054F0001431098821F00201304A143211802F49F9
:10550000091D098821F002012C4A121D118000F0AA
:105510000401002951D02A49097801F0020199B902
:1055200026492C3109882B4A11802549097841F0F8
:105530000201234A117021491431098841F02001E8
:105540001E4A1432118030E01E49097801F0020130
:1055500079B1204909884942184A2C3212881144ED
:105560001D4A11801749097821F00201154A11706E
:1055700007E012492C310988164A1288891A164AFE
:1055800011801349097841F00201114A11700C4948
:10559000097821F002010A4A11700849143109887A
:1055A00021F02001054A143211800449091D09889F
:1055B00021F00401014A121D118070470C34014092
:1055C0004F0000204E0000204A0000204400002030
:1055D000480000204C000020460000204FF0000250
:1055E00000B5134694469646203922BFA0E80C50D9
:1055F000A0E80C50B1F12001BFF4F7AF090728BFB4
:10560000A0E80C5048BF0CC05DF804EB890028BF2F
:1056100040F8042B08BF704748BF20F8022B11F058
:10562000804F18BF00F8012B7047704770477047D4
:1056300010B500F009F8006810BD10B5044600F080
:1056400003F8046010BD00000048704750000020BF
:1056500000487047500000207546FFF7F9FFAE463E
:1056600005006946534620F00700854618B020B56E
:10567000FAF7BEFDBDE820404FF000064FF00007EE
:105680004FF000084FF0000B21F00701AC46ACE8EA
:10569000C009ACE8C009ACE8C009ACE8C0098D4657
:1056A00070470446AFF300802046FAF788FD0000FB
:1056B00001491820ABBEFEE72600020070474100FA
:1056C000080218BF04200A0E18BF40F001004FF076
:1056D0007F4232EA010108BF40F00200012808BF02
:1056E000052070476FF05E01080701F074BA0000F2
:1056F0002DE9F04D0E4614464FF07F41B1EB440FBB
:105700009EBF4FF0FF313160BDE8F08D4FF000409B
:1057100040EA0421C4F3C7507838431100F01F0059
:10572000DFF814C1C0F12002FC445CF823500CEBFC
:1057300083038540D3F804C02CFA02F72F439D68F9
:105740000CFA00FC25FA02F8DB6805FA00F023FAEF
:1057500002F240EA02054CEA080CA7FB0132ACFB5E
:1057600001C0A5FB015101EB0C058D4234BF4FF088
:10577000010C4FF0000CC1186144BCF1000F02D0C5
:10578000814202D903E0814201D2012000E00020E1
:10579000104400F120024FEA92188006CA0C40EA39
:1057A00042304F03C6F8008001F03CF8824638468C
:1057B00001F050F86FF0120101F00DFA074628468B
:1057C00001F048F86FF0250101F005FA83463946EB
:1057D000504600F097FE594600F094FE00F5006533
:1057E0006FF30B055146284601F04EF9394601F09A
:1057F0004BF9594601F03EF9104901F03FF80746D0
:105800000F49284601F03AF8394600F07BFE07467A
:105810000C49284601F032F8394600F073FE14F0C6
:10582000004F08BFBDE8F08DC8F1805180F0004006
:105830003160BDE8F08D00009C1A0000DB0FC92F1D
:1058400022AAFD290000C92F2DE9F843044602468B
:1058500051486946B0EB420F09D94FF0E640B0EB32
:10586000420F94BF00204FF0FF30009030E04B4BD0
:1058700022F00040834271D94949204600F0FEFFE2
:1058800001F0C8F8804600F067FF00F003000090C8
:105890004449404600F0F2FF05464349404600F0C7
:1058A000EDFF06464149404600F0E8FF0746404903
:1058B000404600F0E3FF214601F0DCF8394601F0F4
:1058C000E3F8314601F0E0F8294601F0DDF804463E
:1058D0002546009C002C45DB294614F0010F0846A4
:1058E0001CD000F0CBFF0646324900F0C7FF32491A
:1058F00001F0C0F8314600F0C1FF304900F002FE6F
:10590000314600F0BBFF294600F0B8FF294600F001
:10591000F9FD14F0020F1CD0BDE8F88300F0AEFFD3
:105920000546274900F0AAFF264900F0EBFD29466D
:1059300000F0A4FF244900F0E5FD294600F09EFF99
:105940004FF07E5100F0DEFD14F0020F08BFBDE8FD
:10595000F88380F00040BDE8F883FFE71046FFF7CA
:10596000C7FEB4E76800B0F17F4F3CBF4FF07E50F8
:10597000BDE8F88309D14FF00100FFF75EFEBDE8F6
:10598000F8430021084600F025BE2846BDE8F8434C
:10599000012101F020B90000B61F927E490E494650
:1059A00083F9223F1A61342C0020A23300A0FD3974
:1059B0000000C93F336D4C39DA82083CA0AA2ABEE8
:1059C000B93AB2BACA9F2A3DDDFFFFBE70B505469F
:1059D00001F020F804460146284601F055F815F07C
:1059E000004F4FF07F450ED0B0F13F4F28BFB5EBD1
:1059F000400F0ED2B0F17C5F1DDDB5EB400F1AD326
:105A000013E0044617E0B0F13F4F08D9B5EB400F63
:105A100005D34FF07E51204601F036F8F1E7B0F1A2
:105A20007C5F08DBB5EB400F05D34FF07E5120467D
:105A300000F068FDE5E7B4F19E4F02DDB5EB440FE1
:105A400005D2B4F14F4F05D9B5EB440F02D3012075
:105A5000FFF7F3FD2046BDE8704000F099BE00005E
:105A60002DE9F8430446024653486946B0EB420F1D
:105A700009D94FF0E640B0EB420F94BF00204FF041
:105A8000FF30009030E04D4B22F00040834271D94E
:105A90004B49204600F0F2FE00F0BCFF804600F0CB
:105AA0005BFE00F0030000904649404600F0E6FE31
:105AB00005464549404600F0E1FE0646434940465A
:105AC00000F0DCFE07464249404600F0D7FE214682
:105AD00000F0D0FF394600F0D7FF314600F0D4FF88
